8=FIX.4.4|9=72|35=A|34=1|49=TT_OR|52=20231027-07:05:45.843|56=PATS_FIX_UAT|98=0|108=20|10=114|